S00D000070616E69632E737265630C
S11300000C946C000C9494000C945F020C94940077
S11300100C9494000C9494000C948D020C94940011
S11300200C9494000C9494000C9494000C949400FC
S11300300C9494000C9494000C9494000C949400EC
S11300400C9425070C9494000C94A8050C94DA05E0
S11300500C9494000C9494000C9494000C949400CC
S11300600C9494000C949400000000080002010019
S1130070000304070000000000000000010204085F
S113008010204080010204081020010204081020FE
S1130090040404040404040402020202020203032A
S11300A003030303000000002300260029000000CE
S11300B00000250028002B00000000002400270079
S11300C02A001112131415160A0B0C0D0E0F000141
S11300D002030405C8020A0611241FBECFEFD8E0AC
S11300E0DEBFCDBF11E0A0E0B1E0E6E7F9E102C078
S11300F005900D92AA37B107D9F722E0AAE7B1E03B
S113010001C01D92A834B207E1F710E0CCE6D0E0BC
S113011004C02197FE010E94AA0CCA36D107C9F770
S11301200E9438060C94B90C0C940000CF938AE713
S113013091E00E94590A61E080E10E94A20862E312
S113014070E080E090E00E94A00760E080E10E94FF
S1130150A20882E48093060184E58093070110924B
S113016008018AE791E00E940C0A44E066E071E02D
S11301708AE791E00E94C80AC82F8AE791E0C1117A
S113018005C00E94410A6DE071E01CC00E940C0A87
S11301908AE791E00E94410A68EC70E080E090E018
S11301A00E94A00761E080E10E94A20862E370E07F
S11301B080E090E00E94A00760E080E10E94A20835
S11301C064E171E081EA91E00E948C068C2FCF916A
S11301D00895CF93DF938AE791E00E94590ACAE712
S11301E0D0E088818068888362E370E080E090E0FA
S11301F00E94A00769E171E081EA91E00E9486060D
S11302008EE00E942008BC01990F880B990B0E9474
S113021073039B01AC0160E070E080E89FE30E94FF
S1130220D00220E030EC4FE754E40E94FF0320E0CA
S113023030E048EC52E40E94FF030E944203E6E0EF
S1130240F1E022E420832183738362834AE050E057
S113025081EA91E00E9413078AE791E00E940C0A68
S113026044E066E071E08AE791E00E94C80A888170
S11302708F778883DF91CF91089526E040E052EC98
S113028061E070E081EA91E00E944805809160009D
S113029088618093600087E48093600060916000CF
S11302A042E050E081EA91E00E94FB0683B7817F3F
S11302B0846083BF83B7816083BF80917A008F7726
S11302C080937A0061E080E10E94660862E083E046
S11302D00E946608F89480916900846080936900A4
S11302E083E08CBBE99A78948AE791E00E94DB0B67
S11302F063E08AE791E00E948D0B61E08AE791E078
S11303000E94A50B8AE791E00E94490B8AE791E0DD
S11303100E94640B8AE791E00E947F0B60E071E029
S11303208AE791E00E94CB0A40E051E061E08AE76D
S113033091E00E94E50A6FE271E081EA91E00E9497
S113034086068AE791E00E94020A811103C069E2ED
S113035071E002C064E271E081EA91E00E948C06DF
S113036064E670E080E090E00E94A0078AE791E0F4
S11303700C94410A0F931F93CF9380910A01882311
S113038091F010920A0161E080E10E94A20862E308
S113039070E080E090E00E94A0070E94E90060E025
S11303A080E10E94A20880910B01811131C00E945A
S11303B06F0700919D0110919E0120919F01309142
S11303C0A001DC01CB01801B910BA20BB30B0A979C
S11303D0A105B105E8F0C1E0C0930B0183E00E94E0
S11303E0D108892BA9F480919C01811115C0109228
S11303F09B010E946F076093920170939301809315
S11304009401909395010E9496008C2780939C01FF
S113041080919C01882359F10E946F0700919201F9
S1130420109193012091940130919501DC01CB014D
S1130430801B910BA20BB30B803D9740A105B10526
S1130440D0F10E946F07609392017093930180939F
S11304509401909395010E94960081112AC0809185
S11304609B018F5F80939B01823318F524C0809198
S11304700B01882301F160E471E081EA91E00E94BC
S11304808C0664E670E080E090E00E94A0078FEEA6
S113049090E620E48093640095BF25BF8895309151
S11304A09601332319F010929601F4CF1092640050
S11304B002C010929C01CF911F910F9108951F9239
S11304C00F920FB60F9211242F933F934F935F9384
S11304D06F937F938F939F93AF93BF93EF93FF9308
S11304E00E946F0760939D0170939E0180939F010A
S11304F09093A00110920B01FF91EF91BF91AF91E6
S11305009F918F917F916F915F914F913F912F9127
S11305100F900FBE0F901F9018951F920F920FB659
S11305200F9211242F938F939F93AF93BF93809136
S1130530970190919801A0919901B0919A01019627
S1130540A11DB11D8093970190939801A0939901E7
S1130550B0939A01823C9140A105B10520F481E059
S1130560809396010BC081E080930A011092970159
S1130570109298011092990110929A01BF91AF9133
S11305809F918F912F910F900FBE0F901F901895F0
S113059049E050E06AE070E08AE791E00C94E509F4
S11305A00E94E4020C94C5030E94BE0358F00E940A
S11305B0B70340F029F45F3F29F00C94AE035111C6
S11305C00C94F9030C94B4030E94D60368F39923A2
S11305D0B1F3552391F3951B550BBB27AA2762173B
S11305E07307840738F09F5F5F4F220F331F441F48
S11305F0AA1FA9F335D00E2E3AF0E0E832D091507C
S11306005040E695001CCAF72BD0FE2F29D0660F68
S1130610771F881FBB1F261737074807AB07B0E8AB
S113062009F0BB0B802DBF01FF2793585F4F3AF0B1
S11306309E3F510578F00C94AE030C94F9035F3F90
S1130640E4F3983ED4F3869577956795B795F79537
S11306509F5FC9F7880F911D9695879597F908951F
S1130660E1E0660F771F881FBB1F621773078407BB
S1130670BA0720F0621B730B840BBA0BEE1F88F7CA
S1130680E09508950E94DE0388F09F5798F0B92FF3
S11306909927B751B0F0E1F0660F771F881F991FB3
S11306A01AF0BA95C9F714C0B13091F00E94F8035A
S11306B0B1E008950C94F803672F782F8827B85F6A
S11306C039F0B93FCCF3869577956795B395D9F70B
S11306D03EF490958095709561957F4F8F4F9F4F15
S11306E00895E89409C097FB3EF490958095709521
S11306F061957F4F8F4F9F4F9923A9F0F92F96E96A
S1130700BB279395F695879577956795B795F111DE
S1130710F8CFFAF4BB0F11F460FF1BC06F5F7F4F7B
S11307208F4F9F4F16C0882311F096E911C077238D
S113073021F09EE8872F762F05C0662371F096E896
S1130740862F70E060E02AF09A95660F771F881F65
S1130750DAF7880F9695879597F9089597F99F6723
S113076080E870E060E008959FEF80EC0895002435
S11307700A941616170618060906089500240A9402
S113078012161306140605060895092E0394000C88
S113079011F4882352F0BB0F40F4BF2B11F460FF17
S11307A004C06F5F7F4F8F4F9F4F089557FD905840
S11307B0440F551F59F05F3F71F04795880F97FB21
S11307C0991F61F09F3F79F08795089512161306DB
S11307D01406551FF2CF4695F1DF08C0161617060A
S11307E01806991FF1CF869571056105089408953F
S11307F0E894BB2766277727CB0197F908950E94D1
S113080012040C94C5030E94B70338F00E94BE037F
S113081020F0952311F00C94AE030C94B40311242E
S11308200C94F9030E94D60370F3959FC1F3950FBE
S113083050E0551F629FF001729FBB27F00DB11D60
S1130840639FAA27F00DB11DAA1F649F6627B00DF0
S1130850A11D661F829F2227B00DA11D621F739FD9
S1130860B00DA11D621F839FA00D611D221F749FE7
S11308703327A00D611D231F849F600D211D822F2E
S1130880762F6A2F11249F5750409AF0F1F0882355
S11308904AF0EE0FFF1FBB1F661F771F881F915082
S11308A05040A9F79E3F510580F00C94AE030C9480
S11308B0F9035F3FE4F3983ED4F386957795679503
S11308C0B795F795E7959F5FC1F7FE2B880F911DAC
S11308D09695879597F90895FC01918D228D892F1E
S11308E090E0805C9F4F821B91098F739927089534
S11308F0FC01918D828D981731F0828DE80FF11DE6
S1130900858D90E008958FEF9FEF0895FC01918D00
S1130910828D981761F0828DDF01A80FB11D5D965D
S11309208C91928D9F5F9F73928F90E008958FEFCB
S11309309FEF0895FC01538D448D252F30E0842FC3
S113094090E0821B930B541710F0CF9608950197F3
S1130950089580E096E0892B49F080E090E0892BAF
S113096029F00E94000681110C9400000895FC01F6
S1130970848DDF01A80FB11DA35ABF4F2C91848D24
S113098090E001968F739927848FA689B7892C9359
S1130990A089B1898C91837080648C93938D848DAC
S11309A0981306C00288F389E02D80818F7D8083AF
S11309B00895EF92FF920F931F93CF93DF93EC016F
S11309C081E0888F9B8D8C8D981305C0E889F98907
S11309D0808185FD26C0F62E0B8D10E00F5F1F4F22
S11309E00F731127E02E8C8DE8120CC00FB607FC94
S11309F0FACFE889F989808185FFF5CFCE010E947D
S1130A00B704F1CF8B8DFE01E80FF11DE35AFF4FC0
S1130A10F0829FB7F8940B8FEA89FB89808180620A
S1130A200AC09FB7F894EE89FF896083E889F98941
S1130A3080818370806480839FBF81E090E0DF9138
S1130A40CF911F910F91FF90EF900895CF93DF9373
S1130A50EC01888D8823C9F0EA89FB89808185FDB2
S1130A6005C0A889B9898C9186FD0FC00FB607FC13
S1130A70F5CF808185FFF2CFA889B9898C9185FF54
S1130A80EDCFCE010E94B704E7CFDF91CF91089557
S1130A90CF92DF92EF92FF921F93CF93DF93EC01FB
S1130AA06A017B01122F60E874E88EE190E0A701EF
S1130AB096010E94880CDA01C9010197A109B109C4
S1130AC0B695A795979587959C01E889F98982E061
S1130AD08083211580E13807A8F0E889F98910821C
S1130AE060E472E48FE090E0A70196010E94880C14
S1130AF0DA01C9010197A109B109B695A79597959E
S1130B0087959C01EC85FD853083EE85FF852083E8
S1130B10188EEC89FD891083EA89FB8980818061C4
S1130B208083EA89FB89808188608083EA89FB89E4
S1130B30808180688083EA89FB8980818F7D8083BE
S1130B40DF91CF911F91FF90EF90DF90CF900895A8
S1130B501F920F920FB60F9211242F938F939F938E
S1130B60EF93FF93E091B101F091B2018081E091A4
S1130B70B701F091B80182FD12C090818091BA0151
S1130B808F5F8F732091BB01821751F0E091BA01FE
S1130B90F0E0EF55FE4F958F8093BA0101C080813C
S1130BA0FF91EF919F918F912F910F900FBE0F9016
S1130BB01F9018951F920F920FB60F9211242F9326
S1130BC03F934F935F936F937F938F939F93AF93D1
S1130BD0BF93EF93FF9381EA91E00E94B704FF91E2
S1130BE0EF91BF91AF919F918F917F916F915F91A1
S1130BF04F913F912F910F900FBE0F901F9018951A
S1130C0081EA91E00E946C0421E0892B09F420E040
S1130C10822F0895E1EAF1E01382128288EE93E0D4
S1130C20A0E0B0E084839583A683B78383E591E055
S1130C309183808385EC90E09587848784EC90E0B1
S1130C409787868780EC90E0918B808B81EC90E095
S1130C50938B828B82EC90E0958B848B86EC90E076
S1130C60978B868B118E128E138E148E0895089591
S1130C700E94E5070E9437060E943D01C9EAD4E0BC
S1130C800E94BA012097E1F30E94A904F9CFCF9200
S1130C90DF92EF92FF920F931F93CF93DF936C0138
S1130CA07A018B01C0E0D0E0CE15DF0581F0D801D8
S1130CB06D918D01D601ED91FC910190F081E02DB3
S1130CC0C6010995892B11F02196EECF7E01C7014B
S1130CD0DF91CF911F910F91FF90EF90DF90CF9014
S1130CE008956115710579F0FB0101900020E9F781
S1130CF03197AF01461B570BDC01ED91FC9102804B
S1130D00F381E02D099480E090E008950C9471063D
S1130D1061E671E00C9471060F931F93CF93DF93F8
S1130D20EC010E9471068C01CE010E948806800F9E
S1130D30911FDF91CF911F910F9108958F929F92F0
S1130D40AF92BF92EF92FF920F931F93CF93DF93D3
S1130D50CDB7DEB7A1970FB6F894DEBF0FBECDBFF7
S1130D607C01FA01CB0119A2223008F42AE08E0199
S1130D700F5D1F4F822E912CA12CB12CBF01A50118
S1130D8094010E94880CF901CA01015011096A30CA
S1130D9010F4605D01C0695CD8016C93232B242B93
S1130DA0252B61F7B801C7010E947106A1960FB601
S1130DB0F894DEBF0FBECDBFDF91CF911F910F918D
S1130DC0FF90EF90BF90AF909F908F900895211562
S1130DD0310541F4DC01ED91FC910190F081E02DAD
S1130DE0642F09940C949E069A01462F50E060E00B
S1130DF070E00C94E7060F931F93CF93DF93EC01FD
S1130E000E94F4068C01CE010E948806800F911F77
S1130E10DF91CF911F910F9108959A01AB0160E08A
S1130E2070E00C94E7060F931F93CF93DF93EC01CC
S1130E300E940D078C01CE010E948806800F911F2D
S1130E40DF91CF911F910F9108951F920F920FB6CA
S1130E500F9211242F933F938F939F93AF93BF933C
S1130E6080913F0290914002A0914102B0914202D0
S1130E7030913E0226E0230F2D3720F40296A11D67
S1130E80B11D05C029E8230F0396A11DB11D2093B0
S1130E903E0280933F0290934002A0934102B0939C
S1130EA042028091430290914402A0914502B09184
S1130EB046020196A11DB11D809343029093440202
S1130EC0A0934502B0934602BF91AF919F918F9139
S1130ED03F912F910F900FBE0F901F9018952FB731
S1130EE0F89460913F027091400280914102909188
S1130EF042022FBF08953FB7F89480914302909126
S1130F004402A0914502B091460226B5A89B05C0B3
S1130F102F3F19F00196A11DB11D3FBFBA2FA92F74
S1130F20982F8827820F911DA11DB11DBC01CD01F1
S1130F3043E0660F771F881F991F4A95D1F70895DC
S1130F408F929F92AF92BF92CF92DF92EF92FF92D5
S1130F506B017C010E947B074B015C01C114D1042D
S1130F60E104F10401F10E94870C0E947B07DC017B
S1130F70CB0188199909AA09BB09883E9340A105A8
S1130F80B10560F321E0C21AD108E108F10888EE46
S1130F90880E83E0981EA11CB11CC114D104E10485
S1130FA0F10419F7DBCFFF90EF90DF90CF90BF9063
S1130FB0AF909F908F9008958330910528F0880F0B
S1130FC0991F04970197F1F70895789484B5826086
S1130FD084BD84B5816084BD85B5826085BD85B5D9
S1130FE0816085BDEEE6F0E0808181608083E1E888
S1130FF0F0E01082808182608083808181608083C0
S1131000E0E8F0E0808181608083E1EBF0E08081C2
S113101084608083E0EBF0E0808181608083EAE794
S1131020F0E080818460808380818260808380811D
S11310308E7F80838081806880831092C1000895B0
S1131040803108F0805120910C0190E4299F900197
S113105011248F70822B80937C0080917A008064AD
S113106080937A0080917A0086FDFCCF809178008D
S11310702091790090E0922B0895833081F028F438
S1131080813099F08230A1F008958730A9F088303A
S1131090B9F08430D1F4809180008F7D03C08091B9
S11310A080008F7780938000089584B58F7702C085
S11310B084B58F7D84BD08958091B0008F7703C07F
S11310C08091B0008F7D8093B0000895CF93DF931B
S11310D090E0FC01E458FF4F2491FC01E057FF4FDE
S11310E08491882361F190E0880F991FFC01E854F2
S11310F0FF4FC591D491FC01E255FF4FA591B491E6
S1131100611109C09FB7F894888120958223888350
S1131110EC912E230BC0623061F49FB7F894888160
S1131120322F309583238883EC912E2B2C939FBFF1
S113113006C08FB7F894E8812E2B28838FBFDF91E8
S1131140CF9108951F93CF93DF93282F30E0F901B7
S1131150E859FF4F8491F901E458FF4FD491F90104
S1131160E057FF4FC491CC23C1F0162F81110E9488
S11311703D08EC2FF0E0EE0FFF1FE255FF4FA59165
S1131180B4919FB7F894111104C08C91D095D823D1
S113119002C0EC91DE2BDC939FBFDF91CF911F91B6
S11311A00895CF93DF93282F30E0F901E859FF4FDA
S11311B08491F901E458FF4FD491F901E057FF4FAE
S11311C0C491CC2391F081110E943D08EC2FF0E0F2
S11311D0EE0FFF1FEC55FF4FA591B491EC91ED2359
S11311E081E090E021F480E002C080E090E0DF91B3
S11311F0CF9108958EBD00000DB407FEFDCF8EB5CE
S11312000895CF93DF93EC018CB58F7D8CBD8CB5A5
S1131210837F8CBD8CB58C7F8CBD8DB581608DBD7D
S11312208A810E94A2088C899D89DF91CF910C94B8
S1131230DC07FC01208131818281938128173907E1
S113124019F0822F0C94A208089560E00C9401090F
S113125061E00C9401091F93CF93DF93EC01162FE7
S11312600E942509812F8F710E94FA088FEF0E9436
S1131270FA08182FCE010E942809812FDF91CF91FF
S11312801F910895CF92DF92EF92FF920F931F93D5
S1131290CF93DF937C01162F6A01C22F0E94250988
S11312A0812F8F7180620E94FA08D82F8601CC2387
S11312B039F0F80181918F010E94FA08C150F7CFEB
S11312C0C7010E9428098D2FDF91CF911F910F91A3
S11312D0FF90EF90DF90CF9008950F931F93CF93DB
S11312E0DF938C01C62FD42F0E9425098C2F8F7178
S11312F080620E94FA08C82F8D2F0E94FA08C80144
S11313000E9428098C2FDF91CF911F910F9108958E
S1131310BF92CF92DF92EF92FF920F931F93CF93DE
S1131320DF938C01B62EC72EF22EFC01C781DC2F71
S11313304C1708F4D42FF8018085811102C0CD1B0D
S113134001C0C0E0C8010E9425098F2D0E94FA083F
S1131350D82EEB2CFC2CDD2339F0F70181917F0191
S11313600E94FA08D150F7CFCC2329F080E00E94E4
S1131370FA08C150F9CFC8010E9428098D2DDF91C8
S1131380CF911F910F91FF90EF90DF90CF90BF907E
S113139008951F93CF93DF93EC01162F0E94250924
S11313A0812F0E94FA08182FCE010E942809812F4C
S11313B0DF91CF911F91089562EE0C94C90961EEFB
S11313C00C94C9096FEF0C94C909FC017183608303
S11313D053834283168280E28783108685E0868762
S11313E085E090E0A0E0B0E0848B958BA68BB78B72
S11313F0118608956D3710F4462F01C04DE765E05E
S11314000C946D0963E00E942B099FEF980F81E013
S1131410933008F080E00895CF93DF93EC0160E00F
S11314200E941909888999890E94DC076DE1CE011F
S11314300E942B0981FF07C0888999890E94DC07D3
S1131440CE010E94DF0960E0CE010E942B09482FE3
S11314504E7F60E0CE010E946D0962E0CE010E94E1
S11314602B09EEECF0E0E49141E050E001C0440FC0
S1131470EA95EAF7482B62E0CE01DF91CF910C9414
S11314806D09CF93DF93EC0160E00E94190960E0DD
S1131490CE010E942B09482F4D7F60E0CE010E94AF
S11314A06D0960E771E081EA91E0DF91CF910C94DE
S11314B08C06CF93DF93EC0160E00E942B0981FD41
S11314C00EC0482F426060E0CE010E946D0965E0C5
S11314D070E080E090E0DF91CF910C94A007DF9161
S11314E0CF9108950F93CF93DF93EC01211102C0A4
S11314F020EA01C020EBCE010E948809002339F0C4
S113150061E0CE01DF91CF910F910C941909DF9125
S1131510CF910F910895CF92DF92EF92FF920F93A4
S1131520CF93DF93EC0101E00E94720A0E946F07DF
S11315306B017C01CE010E94E209807381F40E9458
S11315406F07DC01CB018C199D09AE09BF098036F8
S11315509105A105B10570F381E08F870EC060E0AD
S1131560CE010E94190940E767E0CE010E946D098F
S113157084FF05C0CE010E94DF0980E001C081E044
S1131580DF91CF910F91FF90EF90DF90CF9008956E
S113159020E00C948B0A0F931F93CF93DF93EC01FD
S11315A08B012E85AB016AE00E9442092E85A801B9
S11315B060E1CE010E9442094F8161E1CE01DF91D9
S11315C0CF911F910F910C946D09EF92FF920F939D
S11315D01F93CF93DF938C01C62F7A01611108C04A
S11315E0FC01468550E0B70109960E94B00C05C085
S11315F0673008F037C0613041F4EC2FF0E0E85375
S1131600FF4F6491F801268506C0E62FF0E0E85309
S1131610FF4F649121E0A701C8010E944209D0E074
S1131620FE01EE53FF4F6491F8014781C8010E9407
S11316306D0962E0C8010E942B09FE01E253FF4FCD
S1131640E49141E050E001C0440FEA95EAF7482BE9
S113165062E0C801DF91CF911F910F91FF90EF904D
S11316600C946D09DF91CF911F910F91FF90EF9032
S11316700895CF93DF93EC010E94250980E50E9431
S1131680FA0883E70E94FA08CE01DF91CF910C9407
S11316902809CF93DF93EC016DE10E942B09482FB9
S11316A044606DE1CE010E946D096CE1CE010E949F
S11316B02B09482F4F636CE1CE010E946D0981E034
S11316C08887DF91CF910895CF93DF93EC016DE18B
S11316D00E942B09482F46606DE1CE010E946D09DE
S11316E06CE1CE010E942B09482F43606CE1CE01CE
S11316F00E946D0981E08887DF91CF910895CF938F
S1131700DF93EC016DE10E942B09482F41606DE1EC
S1131710CE01DF91CF910C946D090F931F93CF935A
S11317208C01C62F66E00E942B09887FC43018F410
S1131730CC0FCF5F01C0C7E04C2F482B66E0C80137
S1131740CF911F910F910C946D090F931F93CF9319
S1131750DF938C01D62F66E00E942B09C82FC77D2A
S1131760D23031F4C0628BE990E0A0E0B0E00CC06C
S1131770D13029F085E590E0A0E0B0E005C0C86074
S113178081E490E0A0E0B0E0F801808B918BA28B23
S1131790B38B4C2F66E0C8010E946D0966E0C80156
S11317A00E942B0991E0C81390E0892FDF91CF911B
S11317B01F910F9108951F93CF93DF93EC018881BC
S11317C099812A813B818217930719F061E00E9475
S11317D066088A819B81288139812817390719F085
S11317E061E00E9466080E94510C60E0CE010E94F4
S11317F0190961E0CE010E94010965E070E080E012
S113180090E00E94A0074CE060E0CE010E946D09C8
S11318104FE564E0CE010E946D0962E0CE010E94B2
S1131820A50B882311F081E08E8366E0CE010E942F
S11318302B09182F60E0CE010E94A50BCE010E9457
S1131840390B40E06DE1CE010E946D0940E06CE18E
S1131850CE010E946D09188640E767E0CE010E9420
S11318606D096CE4CE010E94FA09CE010E94DC09E4
S1131870CE010E94DF09CE010E94590A60E0CE0128
S11318800E942B09482F4E7F60E0CE010E946D0913
S1131890115081E01E3F08F080E0DF91CF911F914D
S11318A00895CF93CFB7F89480914702811127C050
S11318B0EAE9F0E08491E6E8F0E09491E82FF0E0C2
S11318C0EE0FFF1FE854FF4FA591B491EC91E9236B
S11318D021F461E08AE00E94A20861E08AE00E94AB
S11318E066088CB580618CBD8CB580648CBD61E06C
S11318F08DE00E94660861E08BE00E94660880919A
S113190047028F5F80934702CFBFCF910895089518
S1131910A1E21A2EAA1BBB1BFD010DC0AA1FBB1FEF
S1131920EE1FFF1FA217B307E407F50720F0A21B61
S1131930B30BE40BF50B661F771F881F991F1A94CE
S113194069F760957095809590959B01AC01BD01F8
S1131950CF010895EE0FFF1F0590F491E02D099437
S1131960FB01DC0102C001900D9241505040D8F7B8
S10919700895F894FFCF76
S113197644303031420054000000010101666169BF
S11319866C65640073656E74006261747465727963
S1131996203D2000747275650066616C73650043B2
S11319A6686970436F6E6E6563746564203D2000DC
S11319B6656E746572696E6720736C656570000088
S11319C6000000D90447069A0426056C04860478A8
S11319D6040D0A006E616E00696E66006F7666001D
S10D19E6706F776572446F776E002E
S9030000FC
